:020000040800F2
:1000000028640020F14000083D0200083F0200087B
:1000100041020008430200084502000800000000F9
:10002000000000000000000000000000470200087F
:1000300049020008000000004B020008B12400083B
:100040000B4100080B4100080B4100080B41000860
:100050000B4100080B4100080B4100080B41000850
:100060000B4100080B4100080B4100080B41000840
:100070000B4100080B4100080B4100080B41000830
:100080000B4100080B4100080B4100080B41000820
:100090000B4100080B4100080B4100080B41000810
:1000A0000B4100080B4100080B4100080B41000800
:1000B0000B4100080B4100080B4100080B410008F0
:1000C0000B4100080B4100080B4100080B410008E0
:1000D0000B4100080B4100086F0300080B410008AA
:1000E0000B4100080B4100080B4100080000000014
:1000F0000000000000000000000000000000000000
:1001000000000000000000000B4100080B41000847
:100110000B4100080B4100080B4100080B4100088F
:100120000B4100080B4100080B4100080B4100087F
:100130000B4100080B4100080B4100080B4100086F
:100140000B4100080B4100080B4100080B4100085F
:1001500000F002F800F063F80AA090E8000C824476
:100160008344AAF10107DA4501D100F058F8AFF253
:10017000090EBAE80F0013F0010F18BFFB1A43F085
:1001800001031847847A0000A47A000010F8013BAC
:100190000A4413F0030408BF10F8014B1D1108BFF7
:1001A00010F8015B641E05D010F8016B641E01F8A5
:1001B000016BF9D1002D15D010F8014B03F00C03A1
:1001C0000C2BA1EB04040ABF10F8013BA4EB831431
:1001D000A4EB032405F1010314F8016B5B1E01F885
:1001E000016BF9D5914238BF10F8013BD1D370476C
:1001F0000023002400250026103A28BF78C1FBD830
:10020000520728BF30C148BF0B607047642903F014
:10021000E387002070471FB51FBD10B510BD04F067
:10022000FFF81146FFF7F7FF00F029F804F01DF979
:1002300003B4FFF7F2FF03BC02F01CF87047FEE7BF
:10024000FEE7FEE7FEE770477047704770B5634E04
:10025000054634780A2002F0AAF920463478A042F4
:10026000F8D1002108465E4A04E0535C6B545054B8
:10027000491CC9B233789942F7D3307070BD1FB5AD
:100280000026B246344601F075FFDFF858B15846F3
:1002900002F05CF900F052F901F04AFC02F09CF91E
:1002A0004FF6FF7000F0ECFE4C4D6A6810460146B8
:1002B00001F032FB6868DFF8308103274FF47A7968
:1002C000E860A868641C30B101280AD168681E285B
:1002D00007DA401C03E068680F2802DD401EC5E90C
:1002E00001074C450DD1504602F0AAF8824630462F
:1002F00002F0B1F80646014650466A6801F0B5FFC3
:100300000024232E02DD02F07FF901E002F080F9E3
:10031000D8F80800800624D40022694601A801F01C
:1003200045FD584600F09CF803AB02AABDF800104A
:10033000BDF8040001F09DFDBDF80000A0F21551CC
:10034000B1F5C77F04D869680F2901DD491E6960CE
:100350006538B0F5F97F04D868681E2801DA401CBA
:100360006860514630466A6801F09FFBA9E770B5A6
:100370001E4D40F225563146284602F04FFF174CDD
:10038000B8B1284602F0E3FE6188C0B269B91449E9
:1003900022788854114411F8011CA02903D1A12806
:1003A00001D101206080521C22700D4801F062FAD8
:1003B000A0600821284602F027FF012806D1284620
:1003C00002F0C5FE0821284602F025FF31462846E6
:1003D00002F021FF0020207070BD0000000000200E
:1003E0007C48002040420F000010014000440040C3
:1003F00008B54FF6FF70ADF8000004208DF803003B
:100400006946FE4802F015FB08BD08B54FF6FF70BF
:10041000ADF8000003208DF8020010208DF80300D5
:100420006946F64802F005FB08BD70B5F44C0022A1
:10043000C4F8A021F34DC5F8B421F34BC3F8B8219B
:10044000EE4E0C3630600120C3F8B801C5F8B40197
:10045000C3F8B8213160C3F8B801C4F8A00170BD79
:1004600001B5009801E0401E00900028FBD108BDB6
:100470002DE9F041E24F0024C7F8A041E14DC5F855
:10048000B441E149C1F8B841DC4A0C3210600126A0
:10049000C1F8B86105F5DA7507F5D077FFF7A8FF61
:1004A0002E60AC60AE60D548083000683E6084B213
:1004B000FFF7ABFF2046BDE8F08138B50121782079
:1004C00002F002FA4FF6FF70ADF8000003208DF83D
:1004D000020010208DF803006946C84802F0A9FA0E
:1004E0004FF48040ADF800006946C84802F0A1FA18
:1004F0004FF48070ADF800006946C54802F099FAE3
:100500004FF40050C34CADF800006946204602F09D
:1005100090FA4FF40041ADF800106946204602F011
:1005200088FAB7490120C1F8A001B749C1F8B8015C
:10053000B449C1F8BC01C1F8B40138BD2DE9F05F80
:10054000FFF7BBFF42F6E0642046FFF789FF012179
:100550000020FFF76AFF2046FFF782FF0020FFF729
:1005600087FFAD4CE0800020FFF782FFE080E0884D
:100570004FF4E06CA0F5134141F2180A4EF66026E4
:1005800040F2077540F23F194FF4887849F2283756
:10059000253902D0E088B8427DD143F20801E3203A
:1005A000FFF743FF1221E720FFF73FFF41F2312120
:1005B000EF20FFF73AFF01210020FFF736FF4FF44D
:1005C00080710120FFF731FF61460220FFF72DFF08
:1005D00051460320FFF729FF00210420FFF725FFE4
:1005E00040F207210820FFF720FF00210920FFF734
:1005F0001CFF00210A20FFF718FF01210C20FFF744
:1006000014FF00210D20FFF710FF00210F20FFF73E
:100610000CFF00211020FFF708FF07211120FFF732
:1006200004FF00211220FFF700FF00211320FFF735
:10063000FCFE3046FFF714FF3046FFF711FF41F292
:1006400090511020FFF7F1FE40F227211120FFF713
:10065000ECFE3046FFF704FF3046FFF701FF9C2118
:100660001220FFF7E2FE3046FFF7FAFE3046FFF7B2
:10067000F7FE4FF4C8511320FFF7D7FE232129209E
:10068000FFF7D3FE0E212B20FFF7CFFE3046FFF7FA
:10069000E7FE304600E09EE0FFF7E2FE002120206A
:1006A000FFF7C3FE00212120FFF7BFFE3046FFF712
:1006B000D7FE3046FFF7D4FE07213020FFF7B5FE06
:1006C00029463120FFF7B1FE06213220FFF7ADFEAB
:1006D00040F204713520FFF7A8FE41F60471362080
:1006E000FFF7A3FE04213720FFF79FFE00213820EB
:1006F000FFF79BFE40F206713920FFF796FE40F2AD
:1007000001713C20FFF791FE0F213D20FFF78DFE88
:100710003046FFF7A5FE3046FFF7A2FE002150202D
:10072000FFF783FEEF215120FFF77FFE00215220CB
:10073000FFF77BFE49465320FFF777FE4FF4274132
:100740006020FFF772FE01216120FFF76EFE00219D
:100750006A20FFF76AFE00218020FFF766FE002175
:100760008120FFF762FE00218220FFF75EFE00215C
:100770008320FFF75AFE00218420FFF756FE002158
:100780008520FFF752FE10219020FFF74EFE4FF418
:10079000C0619220FFF749FEE088B8420FD10321E3
:1007A0009320FFF742FE41469520FFF73EFE0021D1
:1007B0009720FFF73AFE00219820FFF736FE40F21F
:1007C00033110720FFF731FE00212020FFF72DFE17
:1007D00000212120ECE0E088A0F5134120397CD0F5
:1007E000E088B0F5134FFAD0E08841F2300B45F6BF
:1007F000C0574FF4006A4FF401780FE00018014031
:10080000000022420080224200802142000C014070
:10081000001001400014014030480020A0F51341B1
:1008200031397DD0E0884FF44076A0F5194119396F
:1008300077D0E088A0F5A851053973D0E088A0F5FD
:10084000094189396FD101210020FFF7EEFD4AF6F9
:10085000A4010320FFF7E9FD00210C20FFF7E5FDCF
:1008600040F60C010D20FFF7E0FD4FF42C510E2057
:10087000FFF7DBFDB0211E20FFF7D7FD42F63F1149
:100880000120FFF7D2FD71000220FFF7CEFD00210D
:100890001020FFF7CAFD46F278011120FFF7C5FDD1
:1008A00000210520FFF7C1FD00210620FFF7BDFD57
:1008B0004EF61C711620FFF7B8FD03211720FFF735
:1008C000B4FD40F233210720FFF7AFFD00210B20DC
:1008D000FFF7ABFD00210F2000E052E1FFF7A5FD7F
:1008E00000214120FFF7A1FD00214220FFF79DFDDF
:1008F00000214820FFF799FD4C4649464920FFF763
:1009000094FD00214A20FFF790FD00214B20FFF7C6
:100910008CFD4FF46F414420FFF787FD002103E079
:1009200049E0DAE15FE26AE34520FFF77EFD214618
:100930004620FFF77AFD29463020FFF776FD414635
:100940003120FFF772FD41463220FFF76EFD40F285
:10095000025421463320FFF768FD611D3420FFF764
:1009600064FD41463520FFF760FD41463620FFF724
:100970005CFD21463720FFF758FDB41C21463A2084
:10098000FFF753FD21463B20FFF74FFD00212320B9
:10099000FFF74BFD00212420FFF747FDB101252083
:1009A000FFF743FD00214E20FFF73FFD00214F20C0
:1009B000BDE8F05F39E541F21401E720FFF735FDAE
:1009C0004FF480710120FFF730FD4FF400710220D9
:1009D000FFF72BFD59460320FFF727FD40F20221C8
:1009E0000820FFF722FD00210920FFF71EFD00214E
:1009F0000A20FFF71AFD00210C20FFF716FD002149
:100A00000D20FFF712FD00210F20FFF70EFD002142
:100A10001020FFF70AFD07211120FFF706FD002136
:100A20001220FFF702FD00211320FFF7FEFC3046E5
:100A3000FFF716FD41F290611020FFF7F6FC40F23F
:100A400027211120FFF7F1FC3846FFF709FD0C21A3
:100A50001220FFF7EAFC3846FFF702FD514613204B
:100A6000FFF7E3FC11212920FFF7DFFC0B212B20EE
:100A7000FFF7DBFC3846FFF7F3FC00212020FFF7EF
:100A8000D4FC00212120FFF7D0FC00213020FFF70B
:100A9000CCFC4FF4837421463120FFF7C6FC0021C3
:100AA0003220FFF7C2FC41463520FFF7BEFC41F281
:100AB0000A613620FFF7B9FC29463720FFF7B5FC5D
:100AC00021463820FFF7B1FC29463920FFF7ADFC5D
:100AD00040F202413C20FFF7A8FC40F60F413D20C8
:100AE000FFF7A3FC00215020FFF79FFCEF215120CE
:100AF000FFF79BFC00215220FFF797FC494653204B
:100B0000FFF793FC4FF41C516020FFF78EFC01218E
:100B10006120FFF78AFC00216A20FFF786FC002194
:100B20008020FFF782FC00218120FFF77EFC00215E
:100B30008220FFF77AFC00218320FFF776FC00215A
:100B40008420FFF772FC00218520FFF76EFC102146
:100B50009020FFF76AFC4FF4C0619220FFF765FC1C
:100B600021210720FFF761FC3846FFF779FC61215E
:100B70000720FFF75AFC3846FFF772FC40F23311AA
:100B800035E201210020FFF750FC4FF48071012075
:100B9000FFF74BFC61460220FFF747FC514603205C
:100BA000FFF743FC00210420FFF73FFC40F2022145
:100BB0000820FFF73AFC00210920FFF736FC00214E
:100BC0000A20FFF732FC01210C20FFF72EFC002148
:100BD0000D20FFF72AFC00210F20FFF726FC3046EE
:100BE000FFF73EFC40F201110720FFF71EFC3046E4
:100BF000FFF736FC4FF486511020FFF716FC072153
:100C00001120FFF712FC444641461220FFF70DFC6D
:100C10004FF430611320FFF708FC00212920FFF773
:100C200004FC44F210012B20FFF7FFFB00215020B1
:100C3000FFF7FBFBEF215120FFF7F7FB00215220CC
:100C4000FFF7F3FB49465320FFF7EFFB4FF41C512E
:100C50006020FFF7EAFB01216120FFF7E6FB00219E
:100C60006A20FFF7E2FB00218020FFF7DEFB002176
:100C70008120FFF7DAFB00218220FFF7D6FB00215D
:100C80008320FFF7D2FB00218420FFF7CEFB002159
:100C90008520FFF7CAFB10219020FFF7C6FB00213B
:100CA0009220FFF7C2FB01219320FFF7BEFB2146F4
:100CB0009520FFF7BAFB00219720FFF7B6FB002134
:100CC0009820FFF7B2FB3046FFF7CAFB40F27311E2
:100CD0000720FFF7AAFB30468DE106212820FFF709
:100CE000A4FB01210020FFF7A0FB00211020FFF74B
:100CF0009CFB47F2EF210120FFF797FB4FF4C06107
:100D00000220FFF792FB46F638210320FFF78DFB08
:100D100046F674011120FFF788FB00210F20FFF732
:100D200084FB45F208310B20FFF77FFB03210C20E9
:100D3000FFF77BFB0A210D20FFF777FB4FF43851BB
:100D40000E20FFF772FBBE211E20FFF76EFB4FF453
:100D500000412520FFF769FB4FF4F0412620FFF703
:100D600064FB78212720FFF760FB00214E20FFF76E
:100D70005CFB00214F20FFF758FB40F6D901122001
:100D8000FFF753FB00213020FFF74FFB4FF4827138
:100D90003120FFF74AFB4FF480713220FFF745FB0B
:100DA00040F2053421463320FFF73FFB40F2055166
:100DB0003420FFF73AFB21463520FFF736FB294662
:100DC0003620FFF732FB31463720FFF72EFB4FF47A
:100DD00090513A20FFF729FB51463B20FFF725FBB6
:100DE00033210720E4E500210720FFF71EFB3846EA
:100DF000FFF736FB4FF48E711220FFF716FB01212F
:100E0000A420FFF712FB0F210820FFF70EFB08219B
:100E10000A20FFF70AFB08210D20FFF706FB2946F1
:100E20003020FFF702FB07213120FFF7FEFA40F2E6
:100E300003613220FFF7F9FA61463320FFF7F5FA34
:100E400040F202213420FFF7F0FA02213520FFF7AB
:100E5000ECFA41F60F713620FFF7E7FA2946372002
:100E6000FFF7E3FA00213820FFF7DFFA00213920ED
:100E7000FFF7DBFA29463A20FFF7D7FA00213B209B
:100E8000FFF7D3FA07213C20FFF7CFFA00213D20DE
:100E9000FFF7CBFA3846FFF7E3FA01210720FFF707
:100EA000C4FA01211720FFF7C0FA3846FFF7D8FA35
:100EB0004FF4BD511020FFF7B8FA40F2172111206E
:100EC000FFF7B3FA4FF48F711220FFF7AEFA4FF429
:100ED00070611320FFF7A9FA00212A20FFF7A5FA75
:100EE0000A212920FFF7A1FA4FF49F711220FFF782
:100EF0009CFA00215020FFF798FAEF215120FFF7CC
:100F000094FA00215220FFF790FA49465320FFF748
:100F10008CFA4FF41C516020FFF787FA0121612001
:100F2000FFF783FA00216A20FFF77FFA0021802073
:100F3000FFF77BFA00218120FFF777FA002182205A
:100F4000FFF773FA00218320FFF76FFA0021842056
:100F5000FFF76BFA00218520FFF767FA1321902035
:100F6000FFF763FA31469220FFF75FFA05219320DD
:100F7000FFF75BFA00219520FFF757FA0021972031
:100F8000FFF753FA00219820FFF74FFA4FF48071D2
:100F90000120FFF74AFA61460220FFF746FA594658
:100FA0000320FFF742FA00210420FFF73EFA002158
:100FB0000C20FFF73AFA00210F20FFF736FA002144
:100FC0002020FFF732FA00212120FFF72EFA2121FD
:100FD0000720FFF72AFA3846FFF742FA6121072077
:100FE000FFF723FA3846FFF73BFA40F27311072068
:100FF000FFF71BFA3846BDE8F05FFFF731BABDE8EE
:10100000F09F01B5BDF80000FE49888008BDFE498B
:101010000020C1F8A001FD49C1F8B401FC4AC2F8A2
:10102000B801FC4B222018600120C2F8B801C1F8B9
:10103000B401704770B5F34A0D46D188A1F5094354
:10104000893B16D0D388A5F23F114C42A3F5134635
:10105000203E04D0D188A1F51942193A09D00146A1
:101060002020FFF7E2F9A1B22120BDE87040FFF790
:10107000DCB901464E20FFF7D8F929464F20F4E7A6
:1010800030B50024054621462046FFF7D3FFFFF781
:10109000BEFFDD4B0022C3F8A021DC480121C0F8CF
:1010A000B411DC480560DA484FF49635C0F8B82131
:1010B000C0F8B811641CAC42F8D3C3F8A01130BD1D
:1010C000D3490022C1F8B821D24A10600120C1F8EA
:1010D000B801704710B51446FFF7ACFFFFF797FF54
:1010E0002046FFF7EDFFC8490120C1F8A00110BD5F
:1010F000F12809D2002907DBB1F5A07F04DCC14A41
:1011000089B280B25288E5E770472DE9F041FFF7D8
:1011100091FFBD4F0025C7F8A051BC4CC4F8B45195
:10112000BB48C0F8B851BB4A222111600126C0F863
:10113000B861C4F8B46104F5DA7407F5D077FFF745
:1011400057F9A560A660A560A660B248001F0068B8
:101150003E6084B2FFF759F92046BDE8F08110B532
:10116000012100220846FFF7B5FF01210846FFF7DD
:10117000CCFF01214FF6FF720846FFF7ABFF0121BC
:101180000846FFF7C2FF012145F65A220846FFF73D
:10119000A1FF0121BDE810400846B6E72DE9F04166
:1011A00090460C460646FFF795FFA6F1010C1FFA84
:1011B0008CF042462146FFF78DFF771CB8B24246BD
:1011C0002146FFF787FF651EA9B242463046FFF76A
:1011D00081FF641CA1B242463046FFF77BFFA9B2F3
:1011E0001FFA8CF04246FFF775FFA1B21FFA8CF090
:1011F0004246FFF76FFFA9B2B8B24246FFF76AFF57
:10120000A1B2B8B24246BDE8F04163E710B504466A
:10121000FFF7FDFE2046FFF753FF7B490120C1F891
:10122000A00110BD2DE9F0439846164689460546B3
:101230000024FFF7FFFE0127DFF8C8C1B8F1000F57
:101240001CD1FFF7E4FEBCF80200FFF739FF0120D4
:1012500000226F4904E0C1F8B821C1F8B871401C00
:10126000B042F8D30CE0BCF80200FFF7CFFF6D1CD2
:10127000ADB249462846FFF7DDFE641CB442F2D306
:101280006148C0F8A071BDE8F08330B505460C4652
:10129000A1F10F0081B200231E222846FFF7C2FFF2
:1012A0000F3DA8B22146BDE8304001231E22B9E718
:1012B000F0B51E4614460F46054600233246FFF79A
:1012C000B1FF281980B2002332463946FFF7AAFF42
:1012D0000123224639462846FFF7A4FFB819401ECD
:1012E00081B222462846BDE8F04001239AE72DE965
:1012F000F04F804603208C46A0EB420600241546A2
:1013000064E00CEB050B08EB04091FFA8BF11FFAE4
:1013100089F0FFF78FFE3B4F7888FFF777FFACEB44
:10132000050A1FFA8AF11FFA89F0FFF783FE788811
:10133000FFF76CFFA8EB04091FFA8BF11FFA89F085
:10134000FFF778FE7888FFF761FF1FFA8AF11FFA2E
:1013500089F0FFF76FFE7888FFF758FF0CEB040B5E
:1013600008EB05091FFA8BF11FFA89F0FFF762FEFF
:101370007888FFF74BFFACEB040A1FFA8AF11FFADB
:1013800089F0FFF757FE7888FFF740FFA8EB0509C3
:101390001FFA8BF11FFA89F0FFF74CFE7888FFF7F0
:1013A00035FF1FFA8AF11FFA89F0FFF743FE7888AC
:1013B000FFF72CFF002E03DA06EB8406B61D04E0CF
:1013C000601B06EB80066D1E0A36641CAC4298D981
:1013D000BDE8F08F2DE9F74FC0B200268146019994
:1013E000FFF728FE4FF0800BDFF81880FFF70FFEA5
:1013F000002506EB460A019800240AEB050C00EBD9
:10140000C50709E030480020000022420080224247
:10141000008021420C180140029810F80C102BFAA1
:1014200004F0014240460AD1017851B13819401CFC
:1014300081B24846FFF7FEFDFFF7E9FD04E0408872
:1014400000E08088FFF73CFE641C082CD9D36D1C9B
:10145000032DD0D3FC490120C1F8A00109F10100FE
:10146000C0B281460199FFF7E5FD761C182EBDD369
:10147000BDE8FE8FF0B50024F44D0746042604EBCA
:10148000C40005EBC00204EB440006EBC00081B2CF
:101490003846FFF79FFF641CA4B20D2CEFD3F0BDBC
:1014A000EB4988607047EA48806870472DE9F74F3C
:1014B000C0B29346002681460199FFF7BBFDB446B2
:1014C000DFF88C833EE0FFF7A2FDA068A046047819
:1014D00029E0082C01D3082700E0274600254FF01B
:1014E000800A1DE01BF806102AFA05F0014240466A
:1014F0000FD1017879B1D8F808000078011B019864
:101500000844401C81B24846FFF794FDFFF77FFD79
:1015100004E0408800E08088FFF7D2FD641E6D1C67
:10152000BD42DFD3761C002CD3D1C7490120C1F8BE
:10153000A00109F10100C0B281460199FFF77AFDCF
:101540000CF1010CD8F80800444640786045BAD840
:101550008EE7203AD3B2BE4A10B4926854689278AB
:1015600003FB024210BCA1E72DE9F04114460D46F1
:101570008046B74E4FF4A0770BE021464046FFF778
:10158000E8FFB068007801198CB22044B84203D853
:101590006D1C2A78002AF0D1DFE52DE9F0411546CF
:1015A0000C468046AA4E4FF4A0770BE021464046F9
:1015B000FFF7CFFFB068007801198CB22044B84221
:1015C00003D86D1C2A78002AF0D1C6E52DE9F04336
:1015D00085B000261421684602F05BFE9C4F9DA159
:1015E000B86843780278684602F0AEFD4FF6FF799E
:1015F0004846FFF745FD002269461046FFF7B4FF55
:10160000B86820244FF4A07845786D1CE2B23146CA
:101610002846FFF79EFFB86801788A19521C96B2D7
:101620003144414515D9407800264119491C8DB2F5
:101630004119F0290DD9451C7F2C0AD88848FEF79E
:101640000FFF4846FFF71CFD002269461046FFF7D2
:101650008BFF641CA4B27F2CD8D905B013E601B56A
:10166000BDF800007A49488008BD2DE9F847784E5A
:1016700014469846778889460546D2B2FFF718FE89
:10168000A41E1FFA84FAA8F1010084B209F1010036
:101690001FFA80F8B088ADF80000BDF80000708037
:1016A00007E06D1CADB20023524641462846FFF7C5
:1016B000B9FD641EA4B2F4D2ADF80070BDF800000C
:1016C0007080BDE8F8872DE9F041664C80464FF404
:1016D0000041204601F017FA6114204601F015FA86
:1016E000614D4FF480442146284601F00EFA5F4FC9
:1016F000A6113146384601F008FA41465C4801F02F
:101700000BFA3146384601F0FEF921462846BDE87D
:10171000F04101F0F8B92DE9F041524C80464FF408
:101720000041204601F0EFF96114204601F0EBF989
:101730004D4D4FF480442146284601F0E6F94B4FC9
:10174000A6113146384601F0E0F94146484801F01B
:10175000E3F93146384601F0D6F921462846BDE87E
:10176000F04101F0D0B910B5FFF764FC2220FFF77B
:10177000AAFFBDE810404FF47840CCE72DE9FC5FAC
:1017800080460024154603200F46A0EB450657E08F
:10179000A7EB0409A8EB050A1FFA89F11FFA8AF0E2
:1017A000FFF7E1FF08EB050001901FFA89F180B215
:1017B000FFF7D9FF781981B2A8EB040B00901FFA4C
:1017C0008BF0FFF7D0FF1FFA89F11FFA8AF0FFF7BD
:1017D000CAFFA7EB05091FFA89F11FFA8BF0FFF783
:1017E000C2FF019807EB040B1FFA8BF180B2FFF7E1
:1017F000BAFF1FFA89F108EB04091FFA89F0FFF715
:10180000B2FF009881B21FFA89F0FFF7ACFF1FFA10
:101810008BF11FFA8AF0FFF7A6FF641C002E03DA93
:1018200006EB8406B61D04E0601B06EB80066D1E09
:101830000A36781981B208EB040080B2FFF793FFF3
:10184000AC42A5DDBDE8FC9F000022427A7700088B
:101850003048002053495A453A2564582564000011
:101860000051250200140140000C0140001001400D
:10187000001801402DE9F047814602F0EBFC0026FC
:101880000546344621E0281B401E03F004FE0246B4
:101890000B460020A04902F07BFE074619F8040021
:1018A0008846303803F0F7FD3A46434603F05AFEC7
:1018B00007468846304603F0EEFD43463A4603F0BD
:1018C00079FB03F08BFD0646641CAC42DBDB304643
:1018D000BDE8F0873CB500226D460A2810DA3022B8
:1018E00001F8012B303001F8010B12E090FBF3F40A
:1018F00003FB140490FBF3F03034AC54521C00E0B2
:101900000A230028F2DC521E03D4A85C01F8010B64
:10191000F9E7002008703CBD3EB5144602460020A1
:101920000D4600900190029069461046FFF7D2FFE5
:1019300002A92046FFF7CEFF01A92846FFF7CAFFFC
:101940007648FFF7ADFD40F21F542046FFF759FBE4
:10195000FFF7A9FD002272491046FFF705FEFFF7C9
:10196000A2FD6F49407800221539FFF7FDFDFFF712
:101970009AFD4078002240006949FFF7F5FD2046B6
:10198000FFF73FFB4FF6FF752846FFF768FEA423DD
:10199000632201214B20FFF768FEA42374226621F5
:1019A0004B20FFF762FE2046FFF759FEA423632277
:1019B000DC214B20FFF759FE2846FFF750FE00239D
:1019C000742267219F20FFF72DFC002374226721DA
:1019D000A020FFF727FC002374226721A120FFF736
:1019E00021FC5048FFF75CFD0020FFF738FEFFF7B1
:1019F0005AFD40784A4900EB8000400069221531C9
:101A0000FFF7B2FD01AA69216420FFF7C6FDFFF7C9
:101A10004AFD40784249C0EB001069221F31FFF7B0
:101A2000A3FD6A4669218C20FFF7B7FDFFF73BFD58
:101A300040783B49C0EBC00000EB400069222C31EC
:101A4000FFF792FDFFF72FFD40786922C0EBC00140
:101A500001EB001032491F31FFF786FD3248FFF7D6
:101A60001FFD02AA6E21C820FFF797FD2C4A962180
:101A7000173AC820FFF791FD2C48FFF711FDFFF73B
:101A800012FD4078264900EB400028221939FFF763
:101A90006BFDFFF708FD4078214900EB40004FF453
:101AA00082721B39FFF760FD3EBD3EB5144602460B
:101AB00000200D4600900190029069461046FFF705
:101AC00009FF02A92046FFF705FF01A92846FFF7F5
:101AD00001FF1448FFF7E4FC40F21F50FFF791FAB2
:101AE0000020FFF7BCFD01AA69216420FFF755FD26
:101AF0006A4669218C20FFF750FD0B48FFF7D0FCA8
:101B0000074A9621173AC820FFF747FD02AA6E211F
:101B1000C820FFF742FD3EBD0000244018480020C9
:101B20003D7B000828480020204800201048002065
:101B3000F0B587B00121112000F0C6FE0121C803D5
:101B400000F0CBFE0121FE4800F0FEFF4FF4A05054
:101B5000ADF8000003258DF802501820F94F8DF8DC
:101B600003006946384600F064FFF814ADF8000041
:101B700004208DF803006946384600F05AFF7C15B2
:101B8000ADF800408DF8025010258DF803506946DD
:101B9000384600F04EFF2146384600F0B4FF2020C2
:101BA000ADF8000048208DF8030001268DF8026092
:101BB0006946384600F03DFF0020ADF80400ADF85E
:101BC00008004FF48271ADF80C60ADF81050ADF81C
:101BD0000610ADF80E40ADF8120002210720DA4CD5
:101BE000ADF80A10ADF8140001A9204601F078F80C
:101BF0000121204601F011F907B0F0BD70B5D24CBB
:101C000005460221204601F074F90028F9D0294642
:101C1000204601F02AF90121204601F06AF9002846
:101C2000F9D0204601F023F9C0B270BD70B5C54EA1
:101C300004464FF400752946304600F066FF204602
:101C4000FFF7DCFF0020FFF7D9FF04460020FFF775
:101C5000D5FF40EA042004092946304600F053FF2E
:101C6000204670BD70B588B0064600246D463046EB
:101C7000FFF7DCFF25F81400641CA4B20F2CF6D388
:101C800000214C1CA0B20BE035F8113035F81020C3
:101C9000934203D925F8112025F81030401C80B25A
:101CA0000F28F1D3A1B20E29EBD30021052035F87E
:101CB0001020401C114480B289B20A28F7D30520B5
:101CC000B1FBF0F008B070BD10B50446D020FFF7AE
:101CD000C9FF642801D2002010BD2080012010BD62
:101CE00010B504469020FFF7BDFF642801D2002004
:101CF00010BD2080012010BD7CB5924C0E00054621
:101D000002D0A0688006FCD401A8FFF7DDFF002800
:101D10001CD06846FFF7D8FF002817D016B1A0687E
:101D20008006FCD5BDF80020BDF804108A4203D817
:101D300002F13200814205D3914208D801F132000C
:101D4000824204D288184008288001207CBD0020EF
:101D50007CBD7CB57B4C0E00054602D0A068800699
:101D6000FCD401A8FFF7BCFF00281CD06846FFF791
:101D7000B7FF002817D016B1A0688006FCD5BDF8C3
:101D80000020BDF804108A4203D802F132008142DB
:101D900005D3914208D801F13200824204D288185A
:101DA0004008288001207CBD00207CBD70B5150056
:101DB000644C0E46024602D0A0688006FCD4002186
:101DC0001046FFF799FF00213046FFF7C2FF002DB4
:101DD00002D0A0688006FCD570BD2DE9F041054613
:101DE0000D3082B2A5F10C000C46CBB280B2FFF7E9
:101DF00019FA04F10D00C3B2193881B22A4610460F
:101E0000FFF710FA661C05F10108B1B21FFA88F05D
:101E1000FFF7A9FCB1B26E1EB0B2FFF7A4FC671EBB
:101E2000B9B21FFA88F0FFF79EFCB9B2B0B2FFF763
:101E30009AFC21462846BDE8F0410622FFF79EBCE9
:101E400070B50C460646FFF78EFC751CA8B22146FD
:101E5000FFF789FC641CA1B23046FFF784FCA1B2F5
:101E6000A8B2BDE87040FFF77EBC4FF6FF70FFF7E9
:101E700007B92DE9F047354C80461E46174689467E
:101E8000B4F9000003F0E4FF0546404603F0F8FF14
:101E9000616804F009F8294603F074FE03F0B8FF06
:101EA0003880B4F9020003F0D3FF0546484603F03A
:101EB000E7FFA16803F0F8FF294603F063FE03F093
:101EC000A7FF3080BDE8F0872DE9FF5F4FF6FF7A6E
:101ED0004FF4967B00246D460DF10A090DF10808B8
:101EE0000DF10E0703AE5046FFF7CAF8002C7DD067
:101EF000012C7CD0022C59467AD0DC20FFF76DFFF4
:101F0000012239463046FFF751FF641CE4B2042C2D
:101F1000E9D3BDF80000BDF80410411A00D54942CC
:101F2000BDF80200BDF80620801A00D540424943A2
:101F30004043084403F0C6FA03F016F808E0000036
:101F40000011200000100140003C00403C480020EF
:101F500003F074FA84B2BDF80800BDF80C10411A01
:101F600000D54942BDF80A00BDF80E20801A00D500
:101F7000404249434043084403F0A4FA02F0F4FF0E
:101F800003F05CFA87B2384603F07AFF0546204634
:101F900003F076FF294603F05DFE6F4DA84299DD00
:101FA0006E4EB04296DC002C94D0002F92D0BDF83B
:101FB0000000BDF80810411A00D54942BDF80200E2
:101FC000BDF80A20801A00D54042494340430844E6
:101FD00003F078FA02F0C8FF03F030FA84B2BDF8DB
:101FE0000400BDF80C10411A04D502E09DE0A4E005
:101FF000ABE04942BDF80600BDF80E20801A00D5BE
:10200000404249434043084403F05CFA02F0ACFF0D
:1020100003F014FA80B203F033FF0746204603F0C2
:102020002FFF394603F016FEA842B8DDB042B9DCF6
:10203000BDF80400BDF80810411A00D54942BDF8AA
:102040000600BDF80A20801A00D5404249434043AB
:10205000084403F037FA02F087FF03F0EFF984B287
:10206000BDF80000BDF80C10411A00D54942BDF87A
:102070000200BDF80E20801A00D54042494340437B
:10208000084403F01FFA02F06FFF03F0D7F980B2A3
:1020900003F0F6FE0746204603F0F2FE394603F051
:1020A000D9FDA842C1DDB042C1DCBDF80440BDF895
:1020B0000070E01B03F0CCFE0146294803F0CAFD86
:1020C000284D06466860E01903F0DAFE314603F059
:1020D000EBFE254903F0B4FF4FF0FF38414604F012
:1020E0008EF803F079FE2880BDF80A70BDF806402E
:1020F000381B03F0ADFE01461C4803F0ABFD06465D
:10210000A860381903F0BCFE314603F0CDFE184933
:1021100003F096FF414604F072F803F05DFE68801C
:102120000020FEF7ADFFBDE8FF9F14210846FFF732
:1021300054FE0122A91C6846E5E61421DC20FFF7C5
:102140004CFE0122A91D281DDDE61420FFF745FEE7
:10215000012249464046D6E63333733F6666863FE2
:1021600000005C433C4800200000704300009643A0
:102170000000A04330B587B00121212000F0A4FB6E
:102180000121480400F0A9FB18208DF8130020203D
:10219000ADF810004A4D01248DF8124004A92846DC
:1021A00000F047FC04218DF813104021ADF8101009
:1021B00004A9284600F03DFC0121082000F0C4FCE1
:1021C0004FF4E13000900020ADF80400ADF80600B7
:1021D000ADF80800ADF80C000C203A4DADF80A003F
:1021E0006946284600F0E6FE4FF4A06000F0FCFCD3
:1021F00026208DF814008DF815408DF816408DF8C6
:10220000174005A800F0F5FC012240F225512846B0
:1022100000F04DFF0121284600F03FFF07B030BD20
:1022200010B501218CB0084600F045FB25488021FF
:10223000001D0090244801901020029041F250406F
:1022400003900020CDE904014901CDE908011F4CAC
:10225000069007900A906946204601F07CF801211B
:10226000204601F0A2F80CB010BD1346024618A09B
:1022700001F05EBF704770B5124D0446C1B22846EA
:1022800000F061FF4021284600F0BEFF0028F9D091
:10229000204670BD4FF0FF30704710B5094C20212B
:1022A000204600F0B1FF0028F9D00648001D008844
:1022B0001549C4B2204601F0CBFF204610BD0000F6
:1022C0000014014000440040764900208000024094
:1022D0007B2274656D7065726174757265223A2235
:1022E0002564222C2268756D6964697479223A220A
:1022F0002564222C2254617267657454656D7022C6
:102300003A222564227D00004848002008B50121BA
:10231000042000F0D9FA8020ADF8000003208DF8E9
:10232000020004208DF803006946504800F081FB4C
:1023300008BD08B50121042000F0C6FA8020ADF8E0
:10234000000003208DF8020010208DF8030069467C
:10235000464800F06EFB08BD10B5FFF7EAFF434C9E
:102360008021204600F0D1FB44F6382000F0A1F88F
:102370008021204600F0C7FB1E2000F09AF8BDE83F
:102380001040C3E78021394800F0A9BB10B5374C95
:102390008021204600F0A3FB0028F9D0282000F07F
:1023A00088F88021204600F09AFB012801D0002007
:1023B00010BD8021204600F092FB0128F9D00120B9
:1023C00010BD70B5002004464FF6FF7606EA4005C2
:1023D000FFF7DCFF641C2843A4B2082CF6D370BDC1
:1023E00070B50546FFF7B8FFFFF7CCFF30BBFFF72E
:1023F000C9FF0028FBD0FFF7C5FF0128FBD0002450
:10240000FFF7DFFF2855641CA4B2052CF8D3FFF7B3
:10241000B9FF0028FBD0FFF78CFF8021134800F0A4
:1024200072FB28786978EA780844A978114408444E
:102430002979C0B2814201D0012070BD002070BD59
:102440001CB504466846FFF7CBFF08B120461CBD0B
:102450009DF800001CBD1CB504466846FFF7C0FF90
:1024600008B120461CBD9DF802001CBD00080140BB
:10247000314832494FF080730268B2FBF1F0984264
:10248000FBD220F07F414FF0E020491E41612C4AF1
:10249000F02182F8141D002181610721016170473C
:1024A00028480168002902D00168491E0160704770
:1024B000F6E701B523480099016001680029FCD1C5
:1024C00008BD08B54FF4E06000F08EFB32208DF8B7
:1024D000000000208DF8010003208DF8020001208B
:1024E0008DF80300684600F084FB08BD3EB501216D
:1024F000082000F0F2F942F20F70ADF8040041F646
:102500001F40ADF8000000200F4CADF80600ADF8FC
:1025100002006946204601F02DF80121204601F015
:1025200006FD01221146204601F0E1FA0121204674
:1025300001F0C8FA3EBD00006848002040420F008C
:102540000FE000E04C480020000C00401E490968E4
:10255000B1FBF0F0B0F1807F0ED220F07F414FF060
:10256000E020491E4161194AF02182F8141D002122
:102570008161072101617047FEE715480168002964
:1025800002D00168491E0160704701B510480099EA
:1025900001604FF0E022116941F001011161016811
:1025A0000029FCD1106920F00100106108BD01B4C0
:1025B0004FF47A71009801B04843E6E701B4054949
:1025C000009801B04843E0E7684800200FE000E0D1
:1025D0005048002040420F0038B50121202000F073
:1025E00073F90420ADF8000010208DF803000320DB
:1025F000094C8DF802006946204600F01AFA0421C1
:10260000204600F082FA38BD0421034800F07BBA6E
:102610000421014800F079BA00140140CE48016855
:1026200041F0010101604168CC4A114041600168FC
:10263000CB4A11400160016821F4802101604168AA
:1026400021F4FE014160016821F0A05101604FF4C6
:102650007F0181600021C1627047BF490A6822F48E
:1026600080320A600A6822F480220A60B0F5803F56
:1026700007D0B0F5802F03D1086840F4A02008608F
:102680007047086840F48030F9E703460020590994
:10269000B14A01290AD002290AD0516A03F01F0267
:1026A000012393400B4200D0012070471168F5E7E9
:1026B000116AF3E718B500204FF4A06400903120B0
:1026C000FFF7E3FF0099491C0091A14201D00028C7
:1026D000F5D03120FFF7D9FF002800D0012018BD28
:1026E0009D4A116821F0F80141EAC000106070476E
:1026F0009C4908607047984B5A68084322F474124A
:10270000104358607047974908667047924B10B560
:10271000DA6A954C084322401043D86210BD8E4AB5
:10272000D16A21F0F0010143D16270478A4AD16A2F
:1027300021F470610143D16270478A49886670470D
:10274000854AD16A21F470410143D16270478549BD
:1027500008677047804A516821F0030101435160C6
:1027600070477D48406800F00C0070477A4A516815
:1027700021F0F001014351607047774A516821F41C
:10278000E061014351607047734A516821F4605120
:1027900041EAC000506070476F4A0029517A01D069
:1027A000014300E08143517270476E49C1F8D8007F
:1027B0007047694A516821F44041014351607047B4
:1027C0006A49086070476949091D08607047624995
:1027D000002281F8202081F82020012802D004283E
:1027E00002D1052081F820007047614908607047D8
:1027F00059490A6A02430A6270475D4944390860D0
:102800007047F0B5544B59685A4A11F00C014FF01B
:102810000F0604D0584C042903D0082903D00260C5
:1028200028E0046026E059685A6806EA914102F4FB
:1028300080320D2901D0891C00E00621BAB1DA6A84
:1028400012F4803FDA6A02F00F0202F101020AD0AC
:10285000DD6AC5F30317DD6A7F1CB4FBF7F4C5F32B
:102860000325AD1C6C43B4FBF2F24A43D7E7434A5D
:10287000514301605968424A06EA1111545C0168EB
:10288000E14041605C68072505EA1424145D21FAE3
:1028900004F484605C6805EAD424125DD140C16010
:1028A0005A68032303EA9232354B1B1F9A5CB1FB33
:1028B000F2F10161F0BD284A0029516901D00143BC
:1028C00000E0814351617047234A0029916901D09A
:1028D000014300E08143916170471F4A0029D1699B
:1028E00001D0014300E08143D16170471A4A0029B9
:1028F000916A01D0014300E0814391627047164A1A
:102900000029D16801D0014300E08143D1607047C4
:10291000114A0029116901D0014300E0814311618E
:10292000704713494039086070470E49C8647047C2
:102930000949C87170470848416A41F08071416295
:102940007047054A0146002092680A4200D00120E3
:102950007047014988727047001002400000FFF084
:10296000FFFFF6FE00004242F0FFFEFFC4054242B8
:102970008004424200127A0040787D0100093D0047
:10298000584800208F4910B5884206D10121042003
:10299000FFF7B5FF002104203BE08B49884206D1B8
:1029A00001210820FFF7ABFF0021082031E0874913
:1029B000884206D101211020FFF7A1FF002110203D
:1029C00027E08349884206D101212020FFF797FFA5
:1029D000002120201DE07F49884206D101214020AE
:1029E000FFF78DFF0021402013E07B49884206D18C
:1029F00001218020FFF783FF0021802009E0774933
:102A000088420AD1841501212046FFF778FF002172
:102A10002046BDE81040FFF772BF10BD10B5012180
:102A20000846FFF76CFF0021BDE810400120FFF7CA
:102A300066BFF0B5CC78002204F00F03E40601D5A0
:102A40008C7823430C784FF00F0C14F0FF0F4FF0ED
:102A5000010E1BD005680E880EFA02F42640A6422D
:102A600010D196000CFA06F725EA070703FA06F5D7
:102A7000CE783D43282E02D0482E02D002E0446199
:102A800000E00461521C082AE5D305600A88FF2A89
:102A90001CD94468002202F108060EFA06F50E88D9
:102AA0002E40AE420ED196000CFA06F7BC4303FA54
:102AB00006F7CE783C43282E00D14561CE78482ECB
:102AC00000D10561521C082AE5D34460F0BD4FF6E1
:102AD000FF710180022181700421C170704702469C
:102AE000002092680A4200D001207047806880B2BE
:102AF000704702460020D2680A4200D00120704789
:102B0000C06880B2704701617047416170470AB187
:102B10000161704741617047C160704741F4803284
:102B20008261816182618169806970472C4B10B537
:102B30001A684FF68074224042EA00100843186079
:102B400010BD2849C8617047F0B5254C002801DA4E
:102B5000E36900E06368450D2E0185B2C0F30157BB
:102B6000B540C0F30342032F05D0C6020AD50326A1
:102B70009640B34307E023F07062636823F070630C
:102B8000636002E0AB4343F0706201B12A43002866
:102B900001DAE261F0BD6260F0BD10B58A0721F094
:102BA00003040F49120F21440F238C6893409C4368
:102BB0008C608B68904003438B6010BD0949C1F85D
:102BC000DC00704700080140000C0140001001408B
:102BD0000014014000180140001C01400020014089
:102BE00000000140000020422849084328490860AD
:102BF000704730B50F23C27801780125F2B1244A1D
:102C0000126801F1E02102F4E062C2F5E062120A0A
:102C1000C2F10404D3404278A24084781C4014439B
:102C2000220181F80024007800F01F018D40400946
:102C3000800000F1E020C0F8005130BD01F01F001D
:102C400085404809800000F1E020C0F8805130BD87
:102C5000104A114001430E48001F016070470C4AA2
:102C6000121D0029116801D0014300E08143116069
:102C700070474FF0E0210428086903D020F00400D9
:102C80000861704740F00400FAE700000000FA0510
:102C90000CED00E080FFFF1FA94910B588420AD162
:102CA000841401212046FFF72AFE2046BDE810408B
:102CB0000021FFF724BEA349884202D10121041458
:102CC00004E0A14988420AD10121C4132046FFF73C
:102CD0001FFE2046BDE810400021FFF719BE10BDC1
:102CE00030B502884C8802F441530A88CD882243CB
:102CF0008C882C4322430C8922434C8922438C89A3
:102D00002243CC8922431A430280828B22F4006240
:102D10008283098A018230BDF0B505460C46022047
:102D20000021AA8B85B001264FF240031A40AA83E6
:102D30002884AF8BA268022A42D0A08800B1022664
:102D40008048854202D14FF4003001E04FF48020EA
:102D50007E49CA6A024214D0C86AC0F30330821F97
:102D6000092A01D2801C02E00F2800D11420C96A70
:102D7000774AC1F30311491CB2FBF1F1414348000A
:102D800003E06846FFF73DFD0098E188B1F5007F5C
:102D90002CD07101B0FBF1F000EB8000A168400085
:102DA000B0FBF1F0401D80B20A21B0FBF1F000F061
:102DB0000101401A4FF6FF72C0F34F0002EA0121F1
:102DC000821EFE2A01D302200021E288084302432A
:102DD0002A8420886188A2890843A1881143084376
:102DE000384340F40060A88305B0F0BD000AD3E783
:102DF0000021018041808180C180018141818181E8
:102E0000C1810721018270470021018041808180BA
:102E1000C18002228260818170470029018802D02E
:102E200041F0400101E021F040010180704700299C
:102E3000818B02D041F4806101E021F480618183C3
:102E40007047090901238B40002A828899B201D07A
:102E50000A4300E08A4382807047002A828801D0BA
:102E60000A4300E08A4382807047818170478089ED
:102E70007047A1F57E420188FF3A02D041F480718B
:102E800001E021F48071018070470029818802D01F
:102E900041F0040101E021F00401818070470288C3
:102EA00022F40062028002880A430280704701888F
:102EB00041F48051018070470029018802D041F41B
:102EC000005101E021F4005101807047012901D037
:102ED000008B7047808A7047008A7047B1F5804F39
:102EE000018803D021F480410180704741F4804182
:102EF000FAE70246002012890A4200D001207047FA
:102F0000C9430181704730B501F00F030125024626
:102F100005FA03F40020A3B2090905FA01F4918827
:102F2000A4B2128921401A4202D0002900D0012007
:102F300030BD01F00F0201219140C943018170476A
:102F40000030014000380040003C004000100240CA
:102F500040787D01C44910B588420AD101218C0313
:102F60002046FFF7CCFC2046BDE810400021FFF7CB
:102F7000C6BCBE49884202D101214C0410E0BC49C4
:102F8000884202D101218C040AE0BA49884202D168
:102F90000121CC0404E0B84988420AD101210C0582
:102FA0002046FFF7B5FC2046BDE810400021FFF7A2
:102FB000AFBC10BD30B50446008A85B00D464CF656
:102FC000FF710840E98801432182A0894EF6F31180
:102FD0000840A9882A8911436A8902431143A181C3
:102FE000A08A4FF6FF410840A9890143A1826846A3
:102FF000FFF707FC9C48844201D1039800E0029847
:10300000A189090400EBC00101EB0010296801D57A
:10301000490000E08900B0FBF1F06422B0FBF2F15E
:1030200009010B096FF018056B4300EB8300A389BE
:103030001D044FF0320306D503EBC000B0FBF2F0E5
:1030400000F0070005E003EB0010B0FBF2F000F029
:103050000F000843208105B030BD4FF416510160C8
:1030600000218180C18001810C22428181817047D1
:1030700010B5028A4FF2FF031A400B884C88234395
:103080008C88C9880C4323431343038210BD00215D
:10309000018041808180C18070470029818902D0F0
:1030A00041F4005101E021F400518181704710B5D5
:1030B000C1F3421301F01F040121A140012B07D0ED
:1030C000022B07D01430002A026805D00A4304E01E
:1030D0000C30F8E71030F6E78A43026010BD002A92
:1030E000828A01D00A4300E08A4382827047028AC2
:1030F00022F00F020282028A0A430282704782890A
:1031000022F40062828182890A4382817047002909
:10311000818902D041F0020101E021F002018181A8
:103120007047028A22F020020282028A0A43028247
:1031300070470029018A02D041F4804101E021F466
:10314000804101827047C1F3080181807047808807
:10315000C0F308007047818941F001018181704707
:10316000028BD2B20283028B42EA012101837047B3
:10317000028B02F47F420283028B0A430283704770
:103180000029818A02D041F0200101E021F02001D4
:10319000818270470029818A02D041F0100101E04C
:1031A00021F01001818270470029818A02D041F00C
:1031B000080101E021F0080181827047002981891E
:1031C00002D041F4004101E0C1F30E01818170475A
:1031D0000029818A02D041F4006101E021F40061FC
:1031E00081827047828A22F004028282828A0A43A4
:1031F000828270470029818A02D041F0020101E0F9
:1032000021F00201818270470246002012880A42A2
:1032100000D001207047C9430180704770B501F0AC
:103220001F0501260024C1F3421306FA05F2012B03
:103230000FD0022B0FD0838A4FEA1121008813424E
:1032400006FA01F600EA060001D000B1012420468A
:1032500070BD8389F0E7038AEEE70A0A01219140F5
:10326000C94301807047000000380140004400401D
:1032700000480040004C00400050004001684FF6FC
:10328000FE72114001600021016041608160C160F7
:103290006A496A4A0839904203D1486840F00F00F1
:1032A00006E0664A1432904204D1486840F0F000CB
:1032B00048607047614A2832904203D1486840F420
:1032C0007060F5E75D4A3C32904203D1486840F4B3
:1032D0007040EDE7594A5032904203D1486840F4BB
:1032E0007020E5E7554A6432904203D1486840F4C3
:1032F0007000DDE7514A7832904203D1486840F0CF
:103300007060D5E74E4A111F904203D1086840F023
:103310000F0006E04A4A1432904204D1086840F097
:10332000F00008607047464A2832904203D108688E
:1033300040F47060F5E7424A3C32904203D108689D
:1033400040F47040EDE73E4A50329042EAD10868BE
:1033500040F47020E5E730B5026847F6F0739A4311
:103360000C6A8B682343D1E904452C4323438C69C1
:103370002343CC6923434C6A23438C6A234313437E
:103380000360CA6842600A6882604968C16030BDF3
:103390000021016041608160C16001614161816122
:1033A000C16101624162816270470029016802D0F7
:1033B00041F0010102E04FF6FE72114001607047DA
:1033C000002A026801D00A4300E08A430260704785
:1033D00041607047406880B2704702460020D100CB
:1033E00002D51749083901E0144908390968114222
:1033F00000D001207047C10003D51149091F0860A2
:1034000070470E4908394860704702460020D100D5
:1034100002D50B49083901E0084908390968114209
:1034200000D001207047C10003D50549091F08607D
:1034300070470249083948607047000008000240A0
:1034400008040240F94910B5884202D10121C41490
:1034500086E0B0F1804F09D0F54988420DD10121B5
:103460000220FFF755FA0021022064E001210846FE
:10347000FFF74EFA002101205DE0EE49884206D1B7
:1034800001210420FFF744FA0021042053E0EA4917
:10349000884206D101210820FFF73AFA00210820CE
:1034A00049E0E649884206D101211020FFF730FAB1
:1034B000002110203FE0E249884206D1012120206E
:1034C000FFF726FA0021202035E0DE49884202D1AC
:1034D0000121441444E0DC49884202D10121CC049A
:1034E0003EE0DA49884202D101210C0538E0D84992
:1034F000884202D101214C0532E0D649884206D1EA
:1035000001214020FFF704FA0021402013E0D249B6
:10351000884206D101218020FFF7FAF9002180209E
:1035200009E0CE4988420AD1841501212046FFF7DF
:10353000EFF900212046BDE81040FFF7E9B9C8497E
:10354000884202D101210C040AE0C649884202D116
:1035500001214C0404E0C44988420AD101218C04B1
:103560002046FFF7CCF92046BDE810400021FFF7C8
:10357000C6B910BD30B50288AC4CB24DA0420DD0DA
:10358000A8420BD0B0F1804F08D0A94B984205D08B
:10359000A84B984202D0A84B984203D122F0700366
:1035A0004A881A43A54B984206D0A54B984203D0AF
:1035B00022F44073CA881A4302808A8882850A8866
:1035C0000285A0420AD0A84208D0A54A904205D060
:1035D000A44A904202D0A44A904201D1097A0186BD
:1035E0000121818230BD30B5028C22F001020284BB
:1035F000028C8388048B22F0020224F073050C886D
:103600002C430D8915434A882A43884DA8420BD084
:103610008C4DA84208D0924DA84205D0914DA842A9
:1036200002D0914DA8420DD122F008054A8923F419
:1036300040732A4322F004058A882A438D891D435A
:10364000CB892B4383800483C9888186028430BD63
:1036500070B5028C22F010020284028C8388048BE5
:103660000D8824F4E6464FF6FF7404EA0525354339
:103670000E8922F0200204EA061616434A8804EA5C
:1036800002123243694EB04202D06E4EB04215D1A2
:1036900022F080064A8923F4406304EA021232438E
:1036A00022F040068A8804EA021232438E8904EA34
:1036B00086061E43CB8904EA830333438380058354
:1036C000C9880187028470BD70B5028C22F48072B3
:1036D0000284028C8388848B0D8824F07304254334
:1036E0000E894FF6FF7422F4007204EA0626164390
:1036F0004A8804EA022232434C4EB04202D0514E74
:10370000B04215D122F400664A8923F4405304EAFA
:103710000222324322F480668A8804EA022232437B
:103720008E8904EA06161E43CB8904EA0313334349
:1037300083808583C9888187028470BD70B5028CBF
:1037400022F480520284058C8288838B0C8823F4B7
:10375000E6464FF6FF7303EA0424344325F400568B
:103760000D8903EA053535434E8803EA06362E43B4
:103770002E4DA84202D0334DA84205D122F48045F7
:103780008A8903EA82122A4382808483C988A0F846
:103790004010068470BD828B22F440628283828B4B
:1037A0004FF6FF7303EA01210A4382837047828B3D
:1037B00022F00C028283828B0A4382837047028B41
:1037C00022F440620283028B4FF6FF7303EA012169
:1037D0000A4302837047F0B5048C24F0100404847B
:1037E000078B048C4FF6FF7527F4734705EA033304
:1037F0003B4305EA02221A430C4B05EA01169842A4
:103800000ED0104B98420BD0B0F1804F08D0084B2F
:10381000984205D0074B984202D0074B984225D1D9
:1038200024F02001314341F0100124E0002C01403C
:103830000004004000080040000C00400010004060
:103840000014004000340140004C01400050014091
:103850000054014000180040001C004000200040BF
:1038600000400140004401400048014024F0A00312
:103870000B4343F0100102830184F0BD028B22F060
:103880000C020283028B0A430283704770B5048CDA
:1038900024F001040484058B048C4FF6FF7606EABD
:1038A0000313134325F0F305F84A2B4390420ED03F
:1038B000F74A90420BD0B0F1804F08D0F54A9042C1
:1038C00005D0F54A904202D0F44A904202D124F049
:1038D000020201E024F00A020A4342F001010383DC
:1038E000018470BD2DE9F84F0D4604460888E74F66
:1038F000DFF89CC3DFF89C83DFF89C934988AA8893
:103900002B894FF0804A48B304282FD04FF6FF761A
:103910000828934632D0208C9E4620F48050208484
:10392000A38B208C06EA0132009223F4734306EA4B
:103930000B221A4306EA0E331343BC420AD06445F5
:1039400008D0544506D0444504D04C4502D0D34A53
:10395000944242D120F40050009940E02046FFF705
:1039600095FFE9882046BDE8F84F87E72046FFF736
:1039700032FFE9882046BDE8F84F20E7208C20F48C
:1039800080702084B4F81CE0208C06EA031306EA59
:1039900001222EF0F30E43EA0B0343EA0E030092DA
:1039A000BC420AD0644508D0544506D0444504D0F2
:1039B0004C4502D0B94A944203D120F400700099DA
:1039C00001E020F42060084340F48070A383208449
:1039D000E9882046BDE8F84FE9E620F402400843B4
:1039E00040F48050A3832084E9882046BDE8F84F46
:1039F000D1E62DE9F0410C4600264988074601250D
:103A000001B90226A288012A00D102252088238933
:103A10000028384610D0FFF7DEFEE1883846FFF771
:103A2000CEFE23892A4631463846FFF72FFFE1882C
:103A30003846BDE8F04121E7FFF728FFE188384626
:103A4000FFF71CFF23892A4631463846FFF7C3FE9D
:103A5000E1883846BDE8F041B1E610B50A884B88E8
:103A6000CC881A438B8823431A430B891A434B890A
:103A700089891A430A43A0F8442010BD4FF6FF710C
:103A8000818000210180C180418001727047002146
:103A9000018041808180C180018141818181C1811A
:103AA000704700210180418001228280C180018114
:103AB00070470021018041808180C1800181418166
:103AC000818170470029018802D041F0010101E0A5
:103AD00021F0010101807047002930F8441F02D015
:103AE00041F4004101E0C1F30E0101807047002A5A
:103AF000828901D00A4300E08A4382817047818233
:103B000070471143A0F848107047002A828901D0FD
:103B10000A4300E08A4382817047018921F007014E
:103B200001817047028922F070020A4302817047C6
:103B300000B50346FFF7F6FF188940F0070018812B
:103B400000BD70B516460D46602904464FF00102CF
:103B500031460AD0FFF79AFE29462046FFF7E2FFDA
:103B6000208940F00700208170BDFFF734FEF3E7A5
:103B700030B504894FF6FF7505EA03231343E4B219
:103B80000B432343038130BD10B50446FFF7F0FF1C
:103B9000208940F07700208110BD10B50446FFF762
:103BA000E7FF208940F48040208110BD018582829A
:103BB0007047028822F070020A430280704770B595
:103BC0000589048B068C25F007050D434FF6FC4153
:103BD0000C4040F201110C434FF6FF7101EA031152
:103BE00026F022061143314305810483018470BD10
:103BF000028B22F070020A4302837047028B4FF659
:103C0000FF7322F4E04203EA01211143018370476C
:103C1000828B22F070020A4382837047828B4FF6B8
:103C2000FF7322F4E04203EA0121114381837047CC
:103C30000029018802D041F0800101E021F08001DB
:103C4000018070470029818802D041F0040101E021
:103C500021F00401818070470029818802D041F061
:103C6000080101E021F00801818070470029818866
:103C700002D041F0010101E021F001018180704793
:103C8000028B22F008020A4302837047002C014095
:103C9000003401400004004000080040000C0040D7
:103CA000028B4FF6FF7322F4006203EA01211143F5
:103CB0000183EAE7828B22F008020A438283E4E769
:103CC000828B4FF6FF7322F4006203EA0121114355
:103CD0008183DAE7028B22F004020A430283D4E7ED
:103CE000028B4FF6FF7322F4806203EA0121114335
:103CF0000183CAE7828B22F004020A438283C4E76D
:103D0000828B4FF6FF7322F4806203EA0121114394
:103D10008183BAE7028B22F080020A430283B4E770
:103D2000028B4FF6FF73C2F30E0203EA0121114327
:103D30000183AAE7828B22F080020A438283A4E7F0
:103D4000828B4FF6FF73C2F30E0203EA0121114387
:103D500081839AE7028C22F002020A43028494E7EC
:103D6000028C22F008020A4302848EE7028C4FF68E
:103D7000FF7322F0200203EA01111143018484E75A
:103D8000028C4FF6FF7322F0800203EA0111114307
:103D900001847AE7028C4FF6FF7322F4007203EA83
:103DA00001211143018470E7028C4FF6FF7322F466
:103DB000006203EA01211143018466E7028C4FF699
:103DC000FF7322F4005203EA0131114301845CE7DE
:103DD00010B50123048C8B409C430484038C8A40DF
:103DE0001343038410BD10B50423048C8B409C4303
:103DF0000484038C8A401343038410BD30B501242E
:103E0000058C00F118038C40A543058489B108296D
:103E10000FD0091FC1F34E001844016821F4E0419E
:103E2000016001684FF6FF7303EA0222114301604B
:103E300030BD03EB5100016821F0700101600168A1
:103E4000F4E70029018802D041F0020101E021F0ED
:103E50000201018019E70029018802D041F0040124
:103E600001E021F0040101800FE70029818802D0E0
:103E700041F0800101E021F08001818005E70288A6
:103E800022F00802028002880A430280FDE682884E
:103E900022F07002828082880A438280F5E60289DD
:103EA00022F00702028102890A430281EDE60289BB
:103EB00022F08002028102890A430281E5E68184C0
:103EC000E3E68185E1E68186DFE60187DDE681873D
:103ED000DBE6A0F84010D8E6028822F440720280A7
:103EE00002880A430280D0E6808ECEE6008FCCE6C0
:103EF000808FCAE6B0F84000C7E6808CC5E6008D2A
:103F0000C3E602460020128A0A4200D00120BCE625
:103F1000C9430182B9E602460020138A92890B4206
:103F200002EA010202D0002A00D00120ADE6C94316
:103F30000182AAE60CB50022624800920192016853
:103F400041F4803101604FF4A063016801F4003155
:103F500001910099491C0091019911B90099994268
:103F6000F3D10168890342D50121019156490A68BC
:103F700042F010020A600A6822F003020A600A682E
:103F800042F002020A604168416041684160416854
:103F900041F480614160C16A4C4A1140C162C16A0A
:103FA0004B4A1143C162016841F0806101600168C0
:103FB0000901FCD5416821F47C114160416841F45C
:103FC000E8114160016841F0807101600168890178
:103FD000FCD5416821F003014160416841F00201D4
:103FE00041604168C1F381010229FAD10CBD0192FF
:103FF0000CBD344810B5016841F001010160416811
:10400000344A114041600168334A1140016001683F
:1040100021F480210160416821F4FE0141600168C2
:1040200021F0A05101604FF47F0181600021C16245
:10403000FFF780FF29494FF00060086010BD70B5A0
:10404000204B5868264A274910F00C0004D0264C13
:10405000042803D0082803D00A6029E00C6027E078
:1040600058685A680F2505EA904002F480320D28FE
:1040700001D0801C00E00620BAB1DA6A12F4803F59
:10408000DA6A02F00F0202F101020AD0DD6AC5F31A
:104090000316DD6A761CB4FBF6F4C5F30325AD1CEC
:1040A0006C43B4FBF2F24243D6E7104A5043086037
:1040B00058680C4AC0F30310121D105C0A68C24015
:1040C0000A6070BD001002400020024000F0FEFFB8
:1040D000440601000000FFF0FFFFF6FE08ED00E0DF
:1040E00000127A006848002040787D0100093D00F8
:1040F0000948804709480047FEE7FEE7FEE7FEE77C
:10410000FEE7FEE7FEE7FEE7FEE7FEE704480549B7
:10411000054A064B70470000F33F000851010008B4
:10412000285E0020286400202860002028600020ED
:104130000FB4044910B503AA029800F057F910BC57
:104140005DF814FB484800200FB41CB5074B06AAC5
:104150007B4469460090059800F02FF900206946DD
:1041600000F03EF91CBC5DF814FB00008D0200005D
:104170002DE9F0410E460446002020622046E16809
:10418000884730B3252805D0D4E901219047206A1B
:10419000401CF2E7E168204600278847050018D058
:1041A000A5F14100192802D820354FF400673246A6
:1041B000294620462760FCF729F840B1012804D0A1
:1041C000F61D26F007060836D8E7361DD6E728463E
:1041D000DAE7206ABDE8F0812DE9F04106460024C7
:1041E00010687529314616A510D0AFF3008000285D
:1041F00002DA404213A507E031688A0701D512A50B
:1042000002E0490704D511A5012401E0AFF30080C5
:1042100000210A2206F1240709E0B0FBF2FCB0FB02
:10422000F2F302FB1C00303078541846491C002879
:10423000F3D123462A463046BDE8F04100F05EB88F
:10424000000000002D0000002B00000020000000F6
:10425000FEF711B810B5431C02E010F8011B71B154
:104260008107FAD14FF0013202C88C1A8C4314EA4C
:10427000C211F9D0C01A0A0603D0C01E10BDC01A60
:1042800010BD0A0401D0801E10BD0902FCD0401EE2
:1042900010BD4FF0000200B51346944696462039F3
:1042A00022BFA0E80C50A0E80C50B1F12001BFF4EF
:1042B000F7AF090728BFA0E80C5048BF0CC05DF855
:1042C00004EB890028BF40F8042B08BF704748BFA3
:1042D00020F8022B11F0804F18BF00F8012B704717
:1042E00070477047704710B500F092F8006810BD35
:1042F00010B5044600F08CF8046010BD2DE9F047BD
:104300000D4699469246044600F124080168880645
:1043100004D5E06921F01001216000E00120A842ED
:1043200001DD471B00E00027A1697A1902EB0900B3
:10433000081AA0612078C00602D42046AFF300809E
:10434000002608E0D4E901211AF806009047206A07
:10435000401C761C20624E45F4DB2078C0060AD54E
:104360002046AFF3008006E0D4E9012130209047D9
:10437000206A401C2062381EA7F10107F4DC07E028
:10438000D4E9012118F805009047206A401C2062FA
:10439000281EA5F10105F3DC2046AFF3008020784C
:1043A000000602D50220BDE8F0870120FBE70000EF
:1043B00001694A1C02610878704700B58FB0CDE9E9
:1043C00001310021059105497944CDE903101146D9
:1043D0006846FFF7CDFE0FB000BD0000E5FFFFFF10
:1043E0000A6802F8010B0A6070470000074B70B5BD
:1043F0000D467B44FFF7E1FF04462846FDF74AFFE0
:1044000010B14FF0FF3070BD204670BD81DEFFFF60
:1044100000487047C85D002000487047C85D002014
:104420007546FFF7F9FFAE4605006946534620F092
:104430000700854618B020B5FFF768FEBDE82040AC
:104440004FF000064FF000074FF000084FF0000B50
:1044500021F00701AC46ACE8C009ACE8C009ACE803
:10446000C009ACE8C0098D46704710B50446AFF3EB
:1044700000802046BDE81040FBF7DABE490050EA54
:10448000C12018BF04204A0D18BF40F0010040F2BF
:10449000FF72B2EB515F08BF40F00200012808BF75
:1044A000052070472DE9F0414F1E00EBC70104467F
:1044B000D1E9000115461E4637F006020DD02A4606
:1044C000334601F04FF87F1E04EBC703D3E9002306
:1044D00000F070FD37F00602F1D1022F25D0042F35
:1044E00013D0062F18BFBDE8F0812A46334601F0ED
:1044F00039F8D4E90A2300F05DFD2A46334601F07D
:1045000031F8D4E9082300F055FD2A46334601F07E
:1045100029F8D4E9062300F04DFD2A46334601F080
:1045200021F8D4E9042300F045FD2A46334601F082
:1045300019F8D4E9022300F03DFD2A46334601F084
:1045400011F8D4E90023BDE8F04100F033BD0000CC
:10455000002213461046014900F0E8BD0000F03F7C
:1045600000F028BD002213461046114600F0DEBDC3
:1045700040F2013200204FF0E04101F012BE000095
:10458000024A0020110701F00CBE000001FDFFFFF0
:104590002DE9F04D1D460C4698B0174621F000411C
:1045A00023F00043002814BF4FF0010C4FF0000C23
:1045B0000CEB440CFE4A0CEB02064FEA620C66451B
:1045C0002BD33E0018BF012606EB45061644F94AD8
:1045D000964222D3F84A53EA070C02D0944205D1FE
:1045E00048B918B000201146BDE8F08D002808BF7A
:1045F0004FF0000C01D04FF0010C0CEB440212F50F
:10460000001F0AD8002F14BF4FF0010C4FF0000C10
:104610000CEB450212F5001F07D918B03A462B469D
:104620002146BDE8F04DFFF79BBF0022DFF88CA3C9
:10463000002CB8BF534526DADFF884C36345A8BF12
:10464000022220DADFF870C39C451CDCDFF874C35B
:104650000CEB235CBCF1140F08DDCCF1340627FA17
:1046600006FC0CFA06F6BE420DD108E05FB9CCF1AB
:10467000140623FA06FC0CFA06F69E4203D10CF04F
:104680000102C2F1020251EA000C19D1002D17DA21
:10469000002C18BF022A01D0012A07D00220FFF700
:1046A00027FE18B0BDE8F04DFFF752BF0220FFF71C
:1046B0001FFEFFF74DFF18B081F00041BDE8F08DFF
:1046C000B7F1000C6CD1534525D104F1804212F5AD
:1046D000801201BF00280020B74918B008BFBDE80C
:1046E000F08DB548884207DC002DA1BF6046294601
:1046F00018B0BDE8F08D07E0281E05DA80F0004113
:1047000018B06046BDE8F08DAF497944D1E90001A9
:1047100018B0BDE8F08DDFF8A0C2634525D1002DAB
:104720001FDA19B1514512D1D8B909E0002840F07B
:10473000EC82A24A214618B062F31E01BDE8F08D5A
:104740000020214618B060F31E01BDE8F08D08DAA4
:1047500018B02346BDE8F04D02460020614600F047
:10476000E5BC18B02146BDE8F08D514518DAB5F129
:10477000804F0DD0A5F1005CBCF1FF5C10D1B4F10D
:10478000000C0DDB18B06146BDE8F04D00F0ECBB4D
:10479000234618B00246BDE8F04D194600F0E2BECF
:1047A000060024F0004C3BD1D9B1514533D1002C47
:1047B00006DD002DA1BF0020514618B0BDE8F08DE8
:1047C000002C01DD002D1BDB002C13DA002D11DB8A
:1047D000012A4FF0000014BF78497C4918B0BDE8A9
:1047E000F08D022A18BF002C0AD0012A08D1002C13
:1047F00006DA0AE0002CB8BF002D11DA012A04D035
:10480000002018B00146BDE8F08D18B000204FF030
:104810000041BDE8F08DA1F14050B0F17F601AD0A9
:10482000012000EBE47050EA020421D0624C521ED9
:104830004FF0000B104304BF4FF0000B644C654871
:1048400083427CDD644A654893421FDD884217DB62
:10485000002D25DB37E0002C00DA4AB1022A0CBF1C
:1048600001204FF0FF3018B0BDE8F04D00F013BE4E
:104870000120FFF73DFD18B0BDE8F04DFFF772BE17
:104880004D4A8A4202DC002D0ADC1CE0814202DA39
:10489000002D18DA04E0484B994220DD002D12DD8E
:1048A0000220FFF725FDFFF763FE05460E460022B6
:1048B00053465846214600F055FE18B066F31E01D7
:1048C0002846BDE8F08D0220FFF712FDFFF758FEE5
:1048D0000A46214618B062F31E01BDE8F08D0022A1
:1048E0003046614601F064F880460E466FF00102E2
:1048F00001F057FC4FF05532394B00F067FF42464C
:10490000334600F02FFE0022364B00F05FFF824658
:104910004246334604911046194600F023FE5246A3
:10492000049B00F01FFE8A4600904FF0C0422E4BC1
:104930004046314600F016FE2C4A2B4B00E027E0A3
:10494000CDE906015146009800F00CFE8246019127
:10495000274A284B4046314600F004FE5246019B50
:1049600001F026F882460B4602460591DDE9060174
:1049700000F020FBDDE9062300268846304601F0E2
:1049800017F85246059B00F021FF024600F07EB961
:104990000020B1F5801F07DA35223046614601F06C
:1049A00000FC06466FF0340000EB215024E00000CC
:1049B000FFFF1F00FFFF0F000000F03F0000F07F2F
:1049C0000000404301FCFFFFF23400000000F0FF54
:1049D0000000F0BF0000E0410000F043FFFFEF3FA8
:1049E0005555D53F0000E03F4715F73FFE822B6548
:1049F00044DF5DF80BAE543EA0F2FF300190C1F3EE
:104A0000130040F07F6141F040510291FE4988421D
:104A1000D8BF002004DDFD498142C8BF012001DD6F
:104A20000D9008E000200D900198401C0190029824
:104A3000A0F5801002900299F54878440B910D99E9
:104A400000EBC100D0E900230F9330460A920B9986
:104A500000F0AEFFCDE90601DDE90A2130460F9BEB
:104A600000F0A8FA02460B460020EA4900F05EFB7F
:104A7000059102460B460090DDE9060100F072FD4B
:104A80001490E5488A464FF000087844029900687F
:104A900012904FF0005040EA61010D980F9B01EB1E
:104AA000804000F5002109910A9A129800F080FFD9
:104AB00032460B9B00F08AFE4246534600F052FD00
:104AC0000646029140465146099B129A00F04AFD63
:104AD000DDE9062300F07AFE3246029B00F068FF13
:104AE000059B009A00F03EFD0091149A04905346F5
:104AF0001046194600F036FD06460246C7480B46EA
:104B0000029106217844FFF7CDFCCDE90510029B08
:104B100032461046194600F025FDDDE9053200F069
:104B200021FD05910646534640461946149A00F069
:104B300041FA009B049A00F015FD3246059B00F0F7
:104B400039FACDE90510424653461046194600F0A1
:104B500009FD0022B24B02910A9000F02BFADDE928
:104B6000053200F027FA0E464246AD4B404600F0B3
:104B70001FFF029B0A9A00F01BFFDDE9053200F0DF
:104B800025FE424602910A9033461046514600F0F7
:104B9000E9FCCDE906015346149A02990A9800F0FF
:104BA000E1FC8A460290334642460099049800F0A0
:104BB000D9FC5346029A00F0FDF982460B460246A4
:104BC0000591DDE9060100F0F5F9DDE90623002095
:104BD0008846064600F0ECFE5246059B00F0F6FDC6
:104BE000824609914FF060428E4B3046414600F0BC
:104BF000B9FC049006918C4A8A4B5046099900F002
:104C0000B1FC82460291894A894B3046414600F008
:104C1000A9FC5246029B00F0CDF9864B7B440D9ACD
:104C200003EBC203D3E9002300F0C4F90E9007910F
:104C3000019800F030FC0591DDE9061382460E9ADA
:104C4000049800F0B7F97C4A7A440D9B02EBC30349
:104C5000D3E900230093029200F0ACF95246059B81
:104C600000F0A8F90026884652463046059B00F021
:104C70009FFE009B029A00F09BFE069B049A00F0A8
:104C800097FE079B0E9A00F0A1FD024600200B46FE
:104C900002903846294600F065FC824601912B4679
:104CA00038461946029A00F083FE3246434600F029
:104CB00059FC5246019B00F07DF907468A46324670
:104CC00043462946029800F04DFC05460E463A46FA
:104CD000534600F06FF9594A8846914221DBA8EB10
:104CE000020353EA000210D12A46334600F060FE68
:104CF000CDE90401524A534B3846514600F05AF967
:104D0000DDE9042300F02CFD21D20220FFF7F0FAA8
:104D1000FFF72EFC0A46214618B062F31E01BDE8DB
:104D2000F08D494B28F000429A4210D3474A08EBD5
:104D3000020353EA00027FF4C6AD2A46334600F070
:104D400037FE3A46534600F00BFD7FF6BCAD00221D
:104D5000019228F000403E493E4A01EB2051824238
:104D600023DA481C4FF4801121FA00F040443A4AFB
:104D7000C0F30A517A44394BA1F2FF31CB4020EA0B
:104D80000303C0F3130040F48010C1F11401C840C4
:104D900012680190B8F1000FBCBF40420190284654
:104DA000314600F005FE05460E462A463346384693
:104DB000514600F0FFF84FF000084246284B4046AD
:104DC000059100F0CFFBCDE90601264A264B40466F
:104DD000059900F0C7FB009102902A4633464046F1
:104DE000059900F0E5FD3A46534600F0EFFC1F4AF6
:104DF0001F4B00F0B7FB009B029A00F0DBF8074660
:104E0000884602460B4635E08E9803007AB60B00C2
:104E10003A3100000000F03F72310000A030000085
:104E20000000084009C7EE3FFD033ADCF5015B14C2
:104E3000E02F3EBE782F00003C2F00000000904085
:104E4000FE822B654715973C00CC904000346F3FA5
:104E500001FCFFFF0000E03F882E0000FFFF0F0075
:104E6000432EE63F396CA80C615C20BEEF39FAFE98
:104E7000422EE63FDDE9060100F09CF8DDE906235D
:104E800005460E4600F094FD3A46434600F09EFC6F
:104E90000F462A46334600901046194600F062FB42
:104EA000824602462E4888460B4605217844FFF785
:104EB000F9FA5246434600F055FB2A46334600F0C5
:104EC00085FC80468A463B4628463146009A00F0DB
:104ED00049FB3B46009A00F06DF8069100900022D5
:104EE0004FF080434046514600F062FD0F460C9063
:104EF000424653462846314600F034FB3B460C9A66
:104F000000F014F9069B009A00F052FD2A46334641
:104F100000F04EFD0022134B00F058FC05460198AE
:104F20000E4601EB00510815002810DC28463146DA
:104F3000019A01F036F9FFF7A1FA042808BFFFF73C
:104F40001FFB28463146019A01F02BF905460B4616
:104F500018B02A4658462146BDE8F04D00F002BB85
:104F6000282D00000000F03F2DE9F04106460F46D5
:104F700000F038FC041E0D4618BF0120284320F025
:104F80000040C0F17F6000F1E040C00F0ED0301C47
:104F900018BF0120384320F00040C0F17F6000F1CD
:104FA000E040C00F04BF0120FFF7A2F920462946C8
:104FB000BDE8F08110B591EA030F48BF83F00043CC
:104FC00000F1FE84841A71EB030C05D2121943EB35
:104FD0000C03001B61EB0C01DFF824E14FEA1154D4
:104FE000A4EB135C1EEA430F18BF9EEA445F73D024
:104FF00023EA0E03DCF1200E21EA045143F480136E
:1050000032D322FA0CFE10EB0E0023FA0CFE41EB19
:105010000E01CCF1200E03FA0EFE10EB0E0051F142
:105020000001B1F5801FCCF1200E32D201EB04510A
:1050300012FA0EF2BDE8104058BF7047401C38BF4E
:105040005FEA420218BF7047002814BF20F0010039
:1050500041F100014FEA410313F5001F38BF7047CB
:10506000A1F1C04100F076BB012A43EB0302ACF191
:10507000200CDCF11F0E32BF4FF0000E23FA0CF3B0
:1050800010EB030041EB0451B4EB115FD0D0A1EB66
:10509000045101F5801149085FEA300001EB045129
:1050A0000ED350F1000038BF12FA0EFE08D1BDE851
:1050B0001040C9E7401C38BF5FEA4202CAD1C3E7CB
:1050C000BDE810404FEA410313F5001F38BF704799
:1050D000A1F1C04100F03EBB9EEA445F08D011EA56
:1050E0005E0FBDE8104004BF01F000410020704792
:1050F000BDE8104070B500F0DFFA00BF64FBBE3EB3
:105100000000E0FF02494FF0000001F018B800BFB6
:105110000000F87F491058BFC1F140415B1058BFF3
:10512000C3F140438B42EFF3008070472DE9C0414B
:1051300030B4DFF8A0C23CEA111418BF3CEA1314E3
:1051400000F0EC8081EA03051CEA111444EAD574EE
:1051500018BF1CEA131500F0C780A4EB05044FF03C
:10516000004545EAC12145EAC32341EA505143EADB
:10517000525304F17F74994204F500344FEAC02081
:105180004FEAC22208BF904200F09C804FEA1365AC
:105190000FF24016765D4FEA134506FB05F7C7F19F
:1051A000807706FB07F74FEAD737A7FB03687642FD
:1051B000C8F58038A7FB06CE38BFA8F1010807FB69
:1051C00008E64FF0000EA6FB028CE6FB03CEDCF1F6
:1051D000000CCEF1004E38BFAEF1010EA6FB0C580C
:1051E0004FF000074FF00005E6FB0E87A1FB08C655
:1051F000A0FB07CE16EB0E0645F10005E1FB0765A7
:1052000015F1E04E7EBFA4F580345FEA46066D419D
:1052100016F1800745F100054FEA17274FEA0666A9
:1052200047EA0567A6F1DE46B6F1805F4FEA15252D
:105230001FD9384624F0010C05EBC471BCF1FE6F98
:1052400001EB0C1102D8F0BCBDE8008124425CBF28
:1052500001F5801E9EEAC47F02D4F0BCBDE8008147
:10526000244238D4F0BCA1F1C041BDE8004100F0B7
:1052700071BA4FEAD22242EA43524FEAD323A7FB44
:1052800002864FEAD02040EA415007FB03661EEA3F
:105290000E0F4FEAD12105FB026658BFA6EB005660
:1052A000B6EB00564FEA520E4EEAC37E18EB0E0ED6
:1052B00056EB530EBDD518EB02085E417F1C55F12D
:1052C0000005B6E74FF480154FF000074FF00006D9
:1052D0004FF00008ADE7F0BC4FF0000001F1C04115
:1052E00001F00041BDE8008111EA0C1F0CEA131522
:1052F00000D00CE013EA0C1F00F025804FF00000F6
:10530000F0BC81EA030101F00041BDE80081F0BC7E
:10531000BDE8004181EA030100F01CBAF0BCBDE821
:10532000004170B500F0C8F9097EFC3E00F007B8F6
:1053300081EA03014FF0000001F00041704781EA6B
:10534000030100F007BAF0BCBDE800414FF00000D7
:1053500021497047FFFDFBF9F7F5F4F2F0EEEDEBB4
:10536000E9E8E6E4E3E1E0DEDDDBDAD8D7D5D4D363
:10537000D1D0CFCDCCCBCAC8C7C6C5C4C2C1C0BFAF
:10538000BEBDBCBBBAB9B8B7B6B5B4B3B2B1B0AFB5
:10539000AEADACABAAA9A8A8A7A6A5A4A3A3A2A199
:1053A000A09F9F9E9D9C9C9B9A9999989797969554
:1053B00095949393929191908F8F8E8E8D8C8C8BF0
:1053C0008B8A898988888787868585848483838278
:1053D000828181800000FF070000F87F4FEA4103CF
:1053E0004FEA5353A3F58063D3F11E03C8BFD3F133
:1053F000210C0CDD4FF0004242EAC12242EA505239
:1054000032FA03FC8CEAE17CACEBE1707047102BC4
:10541000C4BF0020704703F5787CBCF1FF3F04D087
:105420006FF0004282EA2100704770B500F044F945
:105430004992248000207047F2E700004FEA1153A0
:10544000A3F58063D3F11E03A8BFD3F1200C08DBC2
:105450004FF0004242EAC12252EA505232FA03F0BF
:10546000704709420BD4102BC4BF0020704703F5CE
:10547000787CBCF1FF3F05D04FF0FF3070474FF014
:105480000000704770B500F017F900BF4992248002
:1054900000207047F0E710F0004248BF4042B0FAE9
:1054A00080F310FA03F10AD0C3F11D0303F5806302
:1054B0004FEA415002EB035202EBD12170474FF00B
:1054C00000007047B0FA80F310FA03F10AD0C3F17C
:1054D0001D0303F580634FEA41504FEA035202EB8C
:1054E000D12170474FF000007047000051EA030CD3
:1054F00017D41CF5801F58BFBCF5801F00F1068033
:10550000994218BF704708BF9042704707D711F5FE
:10551000801F58BF13F5801F19D4994270478942E4
:1055200070471CF5801F08D5BCF5801FF7D58B424E
:1055300018BF704708BF824270474FF4001C1CEB35
:10554000410F38BF1CEB430F01D28B42704770B53F
:1055500000F0B2F8922449004FF000514FF0805310
:10556000FFF7D8BDDFF848C170B51CEA111E1EBF99
:105570001CEA13159EEA0C0F95EA0C0F00F06F80E1
:1055800081EA030423EA4C134EEAD47E21EA4C114B
:1055900041F4801143F48013AE44A1FB024CA0FB04
:1055A0000365AEF17F7E361955EB0C05A1FB034C6C
:1055B0004CF10003A0FB021C16EB0C06654153F1F5
:1055C0000003094218BF46F0010613F4007F0BD117
:1055D0004FEA03314FEA0530340341EA155140EAFE
:1055E00016506FF003020AE04FEAC3214FEAC520CC
:1055F000F40241EA555140EA56506FF0020202EBC4
:105600002E4201EB025585EACE710AD05FEA440CC6
:1056100018BF24F0004450F1000041F1000120EADD
:10562000D47040F2FE7C624500D270BDA84214BF27
:105630004FF080444FF04044002E08BF0024BEF1DC
:10564000806FA8BFA1F1C041BDE8704080F28280A8
:105650004FF0000001F1C04101F0004170479EEAA7
:105660000C0F0CEA131518BF95EA0C0F06D04FF07B
:10567000000081EA030E0EF0004170BD00F01CF83E
:105680008900013E00F007B800F009B84FEA430C6A
:105690005FEA5C5C08D081EA030100F05BB84FEA86
:1056A000410C5FEA5C5CF6D14FF0000001497047A5
:1056B0000000FF070000F87F0EF1020E2EF0030E2F
:1056C0005EF8046B364205D4012A43EB030515F559
:1056D000001F12D8012841EB010C1CF5001F0CD84B
:1056E0000ED14FEAD17C15F5001F0CEB4C0C0CF1E0
:1056F000020C08BF4CEBD37C04E04FF0080C01E037
:105700004FEAD37C0CEB4C0526FA05F606F00706AB
:10571000B6F1040C06D20EEB860CBDE870404CF0DE
:10572000010C6047DFE80CF0090B02024FF000416A
:105730004FF00000A1F5002170BD19461046012868
:1057400051EB010418BFD4F5001484BF002001F010
:10575000004170BD0808A0F500114FEA3101704703
:1057600053EA010C17D41CF5801F58BFBCF5801FED
:1057700000F106808B4218BF704708BF8242704715
:1057800007D713F5801F58BF11F5801F19D48B421E
:1057900070479B4270471CF5801F08D5BCF5801FE1
:1057A000F7D5994218BF704708BF904270474FF431
:1057B000001C1CEB430F38BF1CEB410F01D2994278
:1057C00070470FB40CBC03BCFFF7C1BE91EA030FD6
:1057D00010B581F000413FF5F5AB83F0004300F0D8
:1057E000EFB800002DE9F04101F5801CBCF5001F69
:1057F000C0F2C3804FEA115C21EA0C510CF1FD0CA0
:1058000041F480115FEA5C0C0CF5C07C01D34000D0
:1058100049413DA4890241EA905187028E0E0A0C4B
:10582000A45D04FB04F602FB06F6C6F14046A4FBA9
:105830000662F60D46EA422606FB06F4A4FB0123A7
:105840005242C3F1404338BF5B1EA6FB0242002414
:10585000E6FB0324D20B42EA4446A6FB0623A1FB47
:1058600002E2A3FB07E4A4184FF0000252F1000289
:10587000E3FB01426442C2F1404E38BFAEF1010E7B
:10588000A6FB04234FF00002E6FB0E32A2FB034608
:105890004FF00004B61954F10004E2FB0264A1FBCE
:1058A00006E6A4FB07E816EB08064FF0000858F1DF
:1058B0000008E4FB01687642C8F1405838BFA8F1FF
:1058C0000108A2FB06E4A3FB08E52D194FF0000434
:1058D00054F10004E2FB0854A1FB05E6A7FB04E831
:1058E00018EB06084FF0000656F10006E1FB0486AF
:1058F00018F1200556F10006A809A8F11B08B10906
:1059000008F03F08B8F10A0F40EA86601CD901EBA5
:105910000C51BDE8F08100BFFCF5EEE8E2DDD8D324
:10592000CFCBC7C3C0BDB9B6B4B1AEACA9A7A5A310
:10593000A19F9D9B9A9896959392908F8D8C8B8921
:105940008887868584838281A0FB006800FB01F242
:1059500008EB4208B8EB872807D5341858EB010448
:10596000D5D5401C51F10001D1E7341A78EB010480
:10597000CDD4401E71F10001C9E75FEA4C0C5FEA2B
:105980009C5C0DD105D34FF0000001F00041BDE853
:10599000F081BDE8F04170B5FFF78EFE6DDBFFBE14
:1059A000BDE8F0414FF00000004970470000F87F6B
:1059B00010B591EA030F48BF83F000433FF502ABF7
:1059C000841A71EB030C07D212198CF0004C43EBD4
:1059D0000C03001B61EB0C01DFF8A4E14FEA11544A
:1059E000A4EB135C1EEA430F18BF9EEA445F00F06D
:1059F000B08023EA6E03524221EA0451C3EB6E03E6
:105A000038BF5B1EDCF1200E25D322FA0CFE10EB12
:105A10000E0043FA0CFE41EB0E01CCF1200E03FA0E
:105A20000EFE10EB0E0051F10001CCF1200E29D436
:105A300012FA0EF201EB0451BDE8104058BF704756
:105A4000401C1CBFB2F1004F704700280CBF491C1E
:105A500020F00100704712EB020E43EB030218BF67
:105A60004FF0010E4EEA4202ACF1200CDCF11E0EAA
:105A700054D943FA0CFE10EB0E0051F1FF31CCF17A
:105A80001E0ED5D50EF1010E12FA0EFE404141EB6D
:105A9000010101EB445C5FEA5C5C10D910EBDE7045
:105AA00001EB045138BFBEF1004FBDE8104018BFF4
:105AB000704700280CBF491C20F00100704730D20D
:105AC0004FEAD42C11F5001124F400641BD0B1FA74
:105AD00081F20B3AA41AA41ED2F12003914030FAAD
